{
  "contractName": "PricePrediction",
  "abi": [
    {
      "anonymous": false,
      "inputs": [
        {
          "indexed": false,
          "internalType": "address",
          "name": "predictor",
          "type": "address"
        },
        {
          "indexed": false,
          "internalType": "uint256",
          "name": "timestamp",
          "type": "uint256"
        },
        {
          "indexed": false,
          "internalType": "string",
          "name": "coin",
          "type": "string"
        },
        {
          "indexed": false,
          "internalType": "uint256",
          "name": "predictedPrice",
          "type": "uint256"
        }
      ],
      "name": "PredictionLogged",
      "type": "event"
    },
    {
      "inputs": [
        {
          "internalType": "uint256",
          "name": "",
          "type": "uint256"
        }
      ],
      "name": "predictions",
      "outputs": [
        {
          "internalType": "address",
          "name": "predictor",
          "type": "address"
        },
        {
          "internalType": "string",
          "name": "coin",
          "type": "string"
        },
        {
          "internalType": "uint256",
          "name": "predictedPrice",
          "type": "uint256"
        },
        {
          "internalType": "uint256",
          "name": "timestamp",
          "type": "uint256"
        }
      ],
      "stateMutability": "view",
      "type": "function",
      "constant": true
    },
    {
      "inputs": [
        {
          "internalType": "string",
          "name": "coin",
          "type": "string"
        },
        {
          "internalType": "uint256",
          "name": "predictedPrice",
          "type": "uint256"
        }
      ],
      "name": "storePrediction",
      "outputs": [],
      "stateMutability": "nonpayable",
      "type": "function"
    },
    {
      "inputs": [],
      "name": "getTotalPredictions",
      "outputs": [
        {
          "internalType": "uint256",
          "name": "",
          "type": "uint256"
        }
      ],
      "stateMutability": "view",
      "type": "function",
      "constant": true
    }
  ],
  "bytecode": "0x608060405234801561001057600080fd5b50610753806100206000396000f3fe608060405234801561001057600080fd5b50600436106100405760003560e01c80624fbbb01461004557806338aef05e146100785780635c58006114610094575b600080fd5b61005f600480360381019061005a9190610437565b6100b2565b60405161006f94939291906104b7565b60405180910390f35b610092600480360381019061008d91906103e3565b61019a565b005b61009c6102b7565b6040516100a9919061054f565b60405180910390f35b600081815481106100c257600080fd5b90600052602060002090600402016000915090508060000160009054906101000a900473ffffffffffffffffffffffffffffffffffffffff169080600101805461010b90610665565b80601f016020809104026020016040519081016040528092919081815260200182805461013790610665565b80156101845780601f1061015957610100808354040283529160200191610184565b820191906000526020600020905b81548152906001019060200180831161016757829003601f168201915b5050505050908060020154908060030154905084565b600060405180608001604052803373ffffffffffffffffffffffffffffffffffffffff16815260200184815260200183815260200142815250908060018154018082558091505060019003906000526020600020906004020160009091909190915060008201518160000160006101000a81548173ffffffffffffffffffffffffffffffffffffffff021916908373ffffffffffffffffffffffffffffffffffffffff160217905550602082015181600101908051906020019061025f9291906102c3565b50604082015181600201556060820151816003015550507f815f3ab651630cf41bbc2cdad54bcdabb1e5ba9dc39b990d86afabcd68b46d2e334284846040516102ab9493929190610503565b60405180910390a15050565b60008080549050905090565b8280546102cf90610665565b90600052602060002090601f0160209004810192826102f15760008555610338565b82601f1061030a57805160ff1916838001178555610338565b82800160010185558215610338579182015b8281111561033757825182559160200191906001019061031c565b5b5090506103459190610349565b5090565b5b8082111561036257600081600090555060010161034a565b5090565b60006103796103748461059b565b61056a565b90508281526020810184848401111561039157600080fd5b61039c848285610623565b509392505050565b600082601f8301126103b557600080fd5b81356103c5848260208601610366565b91505092915050565b6000813590506103dd81610706565b92915050565b600080604083850312156103f657600080fd5b600083013567ffffffffffffffff81111561041057600080fd5b61041c858286016103a4565b925050602061042d858286016103ce565b9150509250929050565b60006020828403121561044957600080fd5b6000610457848285016103ce565b91505092915050565b610469816105e7565b82525050565b600061047a826105cb565b61048481856105d6565b9350610494818560208601610632565b61049d816106f5565b840191505092915050565b6104b181610619565b82525050565b60006080820190506104cc6000830187610460565b81810360208301526104de818661046f565b90506104ed60408301856104a8565b6104fa60608301846104a8565b95945050505050565b60006080820190506105186000830187610460565b61052560208301866104a8565b8181036040830152610537818561046f565b905061054660608301846104a8565b95945050505050565b600060208201905061056460008301846104a8565b92915050565b6000604051905081810181811067ffffffffffffffff82111715610591576105906106c6565b5b8060405250919050565b600067ffffffffffffffff8211156105b6576105b56106c6565b5b601f19601f8301169050602081019050919050565b600081519050919050565b600082825260208201905092915050565b60006105f2826105f9565b9050919050565b600073ffffffffffffffffffffffffffffffffffffffff82169050919050565b6000819050919050565b82818337600083830152505050565b60005b83811015610650578082015181840152602081019050610635565b8381111561065f576000848401525b50505050565b6000600282049050600182168061067d57607f821691505b6020821081141561069157610690610697565b5b50919050565b7f4e487b7100000000000000000000000000000000000000000000000000000000600052602260045260246000fd5b7f4e487b7100000000000000000000000000000000000000000000000000000000600052604160045260246000fd5b6000601f19601f8301169050919050565b61070f81610619565b811461071a57600080fd5b5056fea26469706673582212205a496212576accadb331aae3153d6533a38129f7e5725769823c32f4780b420e64736f6c63430008000033",
  "immutableReferences": {},
  "source": "// SPDX-License-Identifier: MIT\npragma solidity ^0.8.0;\n\ncontract PricePrediction {\n    event PredictionLogged(address predictor, uint timestamp, string coin, uint256 predictedPrice);\n\n    struct Prediction {\n        address predictor;\n        string coin;\n        uint256 predictedPrice;\n        uint timestamp;\n    }\n\n    Prediction[] public predictions;\n\n    function storePrediction(string memory coin, uint256 predictedPrice) public {\n        predictions.push(Prediction(msg.sender, coin, predictedPrice, block.timestamp));\n        emit PredictionLogged(msg.sender, block.timestamp, coin, predictedPrice);\n    }\n\n    function getTotalPredictions() public view returns (uint) {\n        return predictions.length;\n    }\n}\n",
  "sourcePath": "/Users/adlnzmnzr/truffle_forecast/contracts/PricePrediction.sol",
  "compiler": {
    "name": "solc",
    "version": "0.8.0+commit.c7dfd78e.Emscripten.clang"
  },
  "schemaVersion": "3.4.16",
  "updatedAt": "2025-05-04T17:17:59.633Z",
  "networkType": "ethereum",
  "devdoc": {
    "kind": "dev",
    "methods": {},
    "version": 1
  },
  "userdoc": {
    "kind": "user",
    "methods": {},
    "version": 1
  }
}